{
  "_format": "hh-sol-artifact-1",
  "contractName": "LSSVMPairFactory",
  "sourceName": "contracts/LSSVMPairFactory.sol",
  "abi": [
    {
      "inputs": [
        {
          "internalType": "contract LSSVMPairEnumerableETH",
          "name": "_enumerableETHTemplate",
          "type": "address"
        },
        {
          "internalType": "contract LSSVMPairMissingEnumerableETH",
          "name": "_missingEnumerableETHTemplate",
          "type": "address"
        },
        {
          "internalType": "contract LSSVMPairEnumerableERC20",
          "name": "_enumerableERC20Template",
          "type": "address"
        },
        {
          "internalType": "contract LSSVMPairMissingEnumerableERC20",
          "name": "_missingEnumerableERC20Template",
          "type": "address"
        },
        {
          "internalType": "address payable",
          "name": "_protocolFeeRecipient",
          "type": "address"
        },
        {
          "internalType": "uint256",
          "name": "_protocolFeeMultiplier",
          "type": "uint256"
        }
      ],
      "stateMutability": "nonpayable",
      "type": "constructor"
    },
    {
      "anonymous": false,
      "inputs": [
        {
          "indexed": false,
          "internalType": "contract ICurve",
          "name": "bondingCurve",
          "type": "address"
        },
        {
          "indexed": false,
          "internalType": "bool",
          "name": "isAllowed",
          "type": "bool"
        }
      ],
      "name": "BondingCurveStatusUpdate",
      "type": "event"
    },
    {
      "anonymous": false,
      "inputs": [
        {
          "indexed": false,
          "internalType": "address",
          "name": "target",
          "type": "address"
        },
        {
          "indexed": false,
          "internalType": "bool",
          "name": "isAllowed",
          "type": "bool"
        }
      ],
      "name": "CallTargetStatusUpdate",
      "type": "event"
    },
    {
      "anonymous": false,
      "inputs": [
        {
          "indexed": false,
          "internalType": "address",
          "name": "poolAddress",
          "type": "address"
        }
      ],
      "name": "NFTDeposit",
      "type": "event"
    },
    {
      "anonymous": false,
      "inputs": [
        {
          "indexed": false,
          "internalType": "address",
          "name": "poolAddress",
          "type": "address"
        }
      ],
      "name": "NewPair",
      "type": "event"
    },
    {
      "anonymous": false,
      "inputs": [
        {
          "indexed": true,
          "internalType": "address",
          "name": "previousOwner",
          "type": "address"
        },
        {
          "indexed": true,
          "internalType": "address",
          "name": "newOwner",
          "type": "address"
        }
      ],
      "name": "OwnershipTransferred",
      "type": "event"
    },
    {
      "anonymous": false,
      "inputs": [
        {
          "indexed": false,
          "internalType": "uint256",
          "name": "newMultiplier",
          "type": "uint256"
        }
      ],
      "name": "ProtocolFeeMultiplierUpdate",
      "type": "event"
    },
    {
      "anonymous": false,
      "inputs": [
        {
          "indexed": false,
          "internalType": "address",
          "name": "recipientAddress",
          "type": "address"
        }
      ],
      "name": "ProtocolFeeRecipientUpdate",
      "type": "event"
    },
    {
      "anonymous": false,
      "inputs": [
        {
          "indexed": false,
          "internalType": "contract LSSVMRouter",
          "name": "router",
          "type": "address"
        },
        {
          "indexed": false,
          "internalType": "bool",
          "name": "isAllowed",
          "type": "bool"
        }
      ],
      "name": "RouterStatusUpdate",
      "type": "event"
    },
    {
      "anonymous": false,
      "inputs": [
        {
          "indexed": false,
          "internalType": "address",
          "name": "poolAddress",
          "type": "address"
        }
      ],
      "name": "TokenDeposit",
      "type": "event"
    },
    {
      "inputs": [
        {
          "internalType": "contract ICurve",
          "name": "",
          "type": "address"
        }
      ],
      "name": "bondingCurveAllowed",
      "outputs": [
        {
          "internalType": "bool",
          "name": "",
          "type": "bool"
        }
      ],
      "stateMutability": "view",
      "type": "function"
    },
    {
      "inputs": [
        {
          "internalType": "address",
          "name": "",
          "type": "address"
        }
      ],
      "name": "callAllowed",
      "outputs": [
        {
          "internalType": "bool",
          "name": "",
          "type": "bool"
        }
      ],
      "stateMutability": "view",
      "type": "function"
    },
    {
      "inputs": [
        {
          "internalType": "uint256",
          "name": "_protocolFeeMultiplier",
          "type": "uint256"
        }
      ],
      "name": "changeProtocolFeeMultiplier",
      "outputs": [],
      "stateMutability": "nonpayable",
      "type": "function"
    },
    {
      "inputs": [
        {
          "internalType": "address payable",
          "name": "_protocolFeeRecipient",
          "type": "address"
        }
      ],
      "name": "changeProtocolFeeRecipient",
      "outputs": [],
      "stateMutability": "nonpayable",
      "type": "function"
    },
    {
      "inputs": [
        {
          "components": [
            {
              "internalType": "contract ERC20",
              "name": "token",
              "type": "address"
            },
            {
              "internalType": "contract IERC721",
              "name": "nft",
              "type": "address"
            },
            {
              "internalType": "contract ICurve",
              "name": "bondingCurve",
              "type": "address"
            },
            {
              "internalType": "address payable",
              "name": "assetRecipient",
              "type": "address"
            },
            {
              "internalType": "enum LSSVMPair.PoolType",
              "name": "poolType",
              "type": "uint8"
            },
            {
              "internalType": "uint128",
              "name": "delta",
              "type": "uint128"
            },
            {
              "internalType": "uint96",
              "name": "fee",
              "type": "uint96"
            },
            {
              "internalType": "uint128",
              "name": "spotPrice",
              "type": "uint128"
            },
            {
              "internalType": "uint256[]",
              "name": "initialNFTIDs",
              "type": "uint256[]"
            },
            {
              "internalType": "uint256",
              "name": "initialTokenBalance",
              "type": "uint256"
            }
          ],
          "internalType": "struct LSSVMPairFactory.CreateERC20PairParams",
          "name": "params",
          "type": "tuple"
        }
      ],
      "name": "createPairERC20",
      "outputs": [
        {
          "internalType": "contract LSSVMPairERC20",
          "name": "pair",
          "type": "address"
        }
      ],
      "stateMutability": "nonpayable",
      "type": "function"
    },
    {
      "inputs": [
        {
          "internalType": "contract IERC721",
          "name": "_nft",
          "type": "address"
        },
        {
          "internalType": "contract ICurve",
          "name": "_bondingCurve",
          "type": "address"
        },
        {
          "internalType": "address payable",
          "name": "_assetRecipient",
          "type": "address"
        },
        {
          "internalType": "enum LSSVMPair.PoolType",
          "name": "_poolType",
          "type": "uint8"
        },
        {
          "internalType": "uint128",
          "name": "_delta",
          "type": "uint128"
        },
        {
          "internalType": "uint96",
          "name": "_fee",
          "type": "uint96"
        },
        {
          "internalType": "uint128",
          "name": "_spotPrice",
          "type": "uint128"
        },
        {
          "internalType": "uint256[]",
          "name": "_initialNFTIDs",
          "type": "uint256[]"
        }
      ],
      "name": "createPairETH",
      "outputs": [
        {
          "internalType": "contract LSSVMPairETH",
          "name": "pair",
          "type": "address"
        }
      ],
      "stateMutability": "payable",
      "type": "function"
    },
    {
      "inputs": [
        {
          "internalType": "contract ERC20",
          "name": "token",
          "type": "address"
        },
        {
          "internalType": "address",
          "name": "recipient",
          "type": "address"
        },
        {
          "internalType": "uint256",
          "name": "amount",
          "type": "uint256"
        }
      ],
      "name": "depositERC20",
      "outputs": [],
      "stateMutability": "nonpayable",
      "type": "function"
    },
    {
      "inputs": [
        {
          "internalType": "contract IERC721",
          "name": "_nft",
          "type": "address"
        },
        {
          "internalType": "uint256[]",
          "name": "ids",
          "type": "uint256[]"
        },
        {
          "internalType": "address",
          "name": "recipient",
          "type": "address"
        }
      ],
      "name": "depositNFTs",
      "outputs": [],
      "stateMutability": "nonpayable",
      "type": "function"
    },
    {
      "inputs": [],
      "name": "enumerableERC20Template",
      "outputs": [
        {
          "internalType": "contract LSSVMPairEnumerableERC20",
          "name": "",
          "type": "address"
        }
      ],
      "stateMutability": "view",
      "type": "function"
    },
    {
      "inputs": [],
      "name": "enumerableETHTemplate",
      "outputs": [
        {
          "internalType": "contract LSSVMPairEnumerableETH",
          "name": "",
          "type": "address"
        }
      ],
      "stateMutability": "view",
      "type": "function"
    },
    {
      "inputs": [
        {
          "internalType": "address",
          "name": "potentialPair",
          "type": "address"
        },
        {
          "internalType": "enum ILSSVMPairFactoryLike.PairVariant",
          "name": "variant",
          "type": "uint8"
        }
      ],
      "name": "isPair",
      "outputs": [
        {
          "internalType": "bool",
          "name": "",
          "type": "bool"
        }
      ],
      "stateMutability": "view",
      "type": "function"
    },
    {
      "inputs": [],
      "name": "missingEnumerableERC20Template",
      "outputs": [
        {
          "internalType": "contract LSSVMPairMissingEnumerableERC20",
          "name": "",
          "type": "address"
        }
      ],
      "stateMutability": "view",
      "type": "function"
    },
    {
      "inputs": [],
      "name": "missingEnumerableETHTemplate",
      "outputs": [
        {
          "internalType": "contract LSSVMPairMissingEnumerableETH",
          "name": "",
          "type": "address"
        }
      ],
      "stateMutability": "view",
      "type": "function"
    },
    {
      "inputs": [],
      "name": "owner",
      "outputs": [
        {
          "internalType": "address",
          "name": "",
          "type": "address"
        }
      ],
      "stateMutability": "view",
      "type": "function"
    },
    {
      "inputs": [],
      "name": "protocolFeeMultiplier",
      "outputs": [
        {
          "internalType": "uint256",
          "name": "",
          "type": "uint256"
        }
      ],
      "stateMutability": "view",
      "type": "function"
    },
    {
      "inputs": [],
      "name": "protocolFeeRecipient",
      "outputs": [
        {
          "internalType": "address payable",
          "name": "",
          "type": "address"
        }
      ],
      "stateMutability": "view",
      "type": "function"
    },
    {
      "inputs": [],
      "name": "renounceOwnership",
      "outputs": [],
      "stateMutability": "nonpayable",
      "type": "function"
    },
    {
      "inputs": [
        {
          "internalType": "contract LSSVMRouter",
          "name": "",
          "type": "address"
        }
      ],
      "name": "routerStatus",
      "outputs": [
        {
          "internalType": "bool",
          "name": "allowed",
          "type": "bool"
        },
        {
          "internalType": "bool",
          "name": "wasEverAllowed",
          "type": "bool"
        }
      ],
      "stateMutability": "view",
      "type": "function"
    },
    {
      "inputs": [
        {
          "internalType": "contract ICurve",
          "name": "bondingCurve",
          "type": "address"
        },
        {
          "internalType": "bool",
          "name": "isAllowed",
          "type": "bool"
        }
      ],
      "name": "setBondingCurveAllowed",
      "outputs": [],
      "stateMutability": "nonpayable",
      "type": "function"
    },
    {
      "inputs": [
        {
          "internalType": "address payable",
          "name": "target",
          "type": "address"
        },
        {
          "internalType": "bool",
          "name": "isAllowed",
          "type": "bool"
        }
      ],
      "name": "setCallAllowed",
      "outputs": [],
      "stateMutability": "nonpayable",
      "type": "function"
    },
    {
      "inputs": [
        {
          "internalType": "contract LSSVMRouter",
          "name": "_router",
          "type": "address"
        },
        {
          "internalType": "bool",
          "name": "isAllowed",
          "type": "bool"
        }
      ],
      "name": "setRouterAllowed",
      "outputs": [],
      "stateMutability": "nonpayable",
      "type": "function"
    },
    {
      "inputs": [
        {
          "internalType": "address",
          "name": "newOwner",
          "type": "address"
        }
      ],
      "name": "transferOwnership",
      "outputs": [],
      "stateMutability": "nonpayable",
      "type": "function"
    },
    {
      "inputs": [
        {
          "internalType": "contract ERC20",
          "name": "token",
          "type": "address"
        },
        {
          "internalType": "uint256",
          "name": "amount",
          "type": "uint256"
        }
      ],
      "name": "withdrawERC20ProtocolFees",
      "outputs": [],
      "stateMutability": "nonpayable",
      "type": "function"
    },
    {
      "inputs": [],
      "name": "withdrawETHProtocolFees",
      "outputs": [],
      "stateMutability": "nonpayable",
      "type": "function"
    },
    {
      "stateMutability": "payable",
      "type": "receive"
    }
  ],
  "bytecode": "0x6101006040523480156200001257600080fd5b5060405162001e5338038062001e5383398101604081905262000035916200013c565b6200004033620000d3565b6001600160a01b0386811660805285811660a05284811660c05283811660e052600180546001600160a01b03191691841691909117905567016345785d8a0000811115620000c45760405162461bcd60e51b815260206004820152600d60248201526c46656520746f6f206c6172676560981b604482015260640160405180910390fd5b60025550620001c49350505050565b600080546001600160a01b038381166001600160a01b0319831681178455604051919092169283917f8be0079c531659141344cd1fd0a4f28419497f9722a3daafe3b4186f6b6457e09190a35050565b6001600160a01b03811681146200013957600080fd5b50565b60008060008060008060c087890312156200015657600080fd5b8651620001638162000123565b6020880151909650620001768162000123565b6040880151909550620001898162000123565b60608801519094506200019c8162000123565b6080880151909350620001af8162000123565b8092505060a087015190509295509295509295565b60805160a05160c05160e051611c0f62000244600039600081816102a30152818161057601528181610a810152610aac0152600081816103aa0152818161052a0152610ad201526000818161016c0152818161060001528181610ed20152610efd01526000818161045e015281816105bb0152610f230152611c0f6000f3fe60806040526004361061014e5760003560e01c8063715018a6116100b6578063ad2e57701161006f578063ad2e57701461044c578063b483eddc14610480578063cc5bc20b14610495578063ce9c095d146104b5578063ebd0f693146104c8578063f2fde38b146104e857600080fd5b8063715018a6146103455780638da5cb5b1461035a5780639c3c11d214610378578063a427f1ad14610398578063a82719c8146103cc578063a93ec68b146103fc57600080fd5b80634bf107c1116101085780634bf107c1146102715780634c6bc43314610291578063514f0330146102c557806359722caa146102e557806364df049e146103055780636cc88edb1461032557600080fd5b80624885ea1461015a57806308f25a8f146101ab5780631cad5a40146101db5780631ce4c78b146101fd5780631fba95e8146102215780632cdb394b1461025157600080fd5b3661015557005b600080fd5b34801561016657600080fd5b5061018e7f000000000000000000000000000000000000000000000000000000000000000081565b6040516001600160a01b0390911681526020015b60405180910390f35b3480156101b757600080fd5b506101cb6101c6366004611776565b610508565b60405190151581526020016101a2565b3480156101e757600080fd5b506101fb6101f63660046117b3565b61062f565b005b34801561020957600080fd5b5061021360025481565b6040519081526020016101a2565b34801561022d57600080fd5b506101cb61023c3660046117f4565b60046020526000908152604090205460ff1681565b34801561025d57600080fd5b506101fb61026c366004611864565b610731565b34801561027d57600080fd5b506101fb61028c3660046118da565b610862565b34801561029d57600080fd5b5061018e7f000000000000000000000000000000000000000000000000000000000000000081565b3480156102d157600080fd5b506101fb6102e03660046117f4565b6108ce565b3480156102f157600080fd5b5061018e610300366004611908565b610972565b34801561031157600080fd5b5060015461018e906001600160a01b031681565b34801561033157600080fd5b506101fb6103403660046118da565b610c1b565b34801561035157600080fd5b506101fb610d0d565b34801561036657600080fd5b506000546001600160a01b031661018e565b34801561038457600080fd5b506101fb610393366004611944565b610d21565b3480156103a457600080fd5b5061018e7f000000000000000000000000000000000000000000000000000000000000000081565b3480156103d857600080fd5b506101cb6103e73660046117f4565b60036020526000908152604090205460ff1681565b34801561040857600080fd5b506104356104173660046117f4565b60056020526000908152604090205460ff8082169161010090041682565b6040805192151583529015156020830152016101a2565b34801561045857600080fd5b5061018e7f000000000000000000000000000000000000000000000000000000000000000081565b34801561048c57600080fd5b506101fb610da6565b3480156104a157600080fd5b506101fb6104b036600461195d565b610dc4565b61018e6104c33660046119d0565b610dea565b3480156104d457600080fd5b506101fb6104e33660046118da565b610fce565b3480156104f457600080fd5b506101fb6105033660046117f4565b61109a565b6000600282600381111561051e5761051e611a91565b14156105565761054f307f000000000000000000000000000000000000000000000000000000000000000085611113565b9050610629565b600382600381111561056a5761056a611a91565b141561059b5761054f307f000000000000000000000000000000000000000000000000000000000000000085611113565b60008260038111156105af576105af611a91565b14156105e05761054f307f00000000000000000000000000000000000000000000000000000000000000008561118d565b60018260038111156105f4576105f4611a91565b14156106255761054f307f00000000000000000000000000000000000000000000000000000000000000008561118d565b5060005b92915050565b6106446001600160a01b038416338484611207565b61064f826002610508565b806106605750610660826003610508565b1561072c57816001600160a01b031663fc0c546a6040518163ffffffff1660e01b815260040160206040518083038186803b15801561069e57600080fd5b505afa1580156106b2573d6000803e3d6000fd5b505050506040513d601f19601f820116820180604052508101906106d69190611aa7565b6001600160a01b0316836001600160a01b0316141561072c576040516001600160a01b03831681527f831faf3fbb75c9fc66e318de7e95905d24c0430822da168c1c06fd49cba8f5f79060200160405180910390a15b505050565b8160005b818110156107da57856001600160a01b03166342842e0e338588888681811061076057610760611ac4565b6040516001600160e01b031960e088901b1681526001600160a01b03958616600482015294909316602485015250602090910201356044820152606401600060405180830381600087803b1580156107b757600080fd5b505af11580156107cb573d6000803e3d6000fd5b50505050806001019050610735565b506107e6826002610508565b806107f757506107f7826000610508565b806108085750610808826003610508565b806108195750610819826001610508565b1561085b576040516001600160a01b03831681527f4fd0cd7c14badac45ff0bee670a9d8dd80e87907afcf2c121e0fd4b8b4b0047f9060200160405180910390a15b5050505050565b61086a61128a565b6001600160a01b038216600081815260036020908152604091829020805460ff19168515159081179091558251938452908301527f1da28d127ec72d2dde6a533c98857664b25cd827680fb1f39f57394c2b444d9191015b60405180910390a15050565b6108d661128a565b6001600160a01b03811661091d5760405162461bcd60e51b815260206004820152600960248201526830206164647265737360b81b60448201526064015b60405180910390fd5b600180546001600160a01b0319166001600160a01b0383169081179091556040519081527fceec08a75d1f3b12c14c6cdc16c081aec1c401c2eac1d8c6ea91e9d73b929211906020015b60405180910390a150565b600060038161098760608501604086016117f4565b6001600160a01b0316815260208101919091526040016000205460ff166109f05760405162461bcd60e51b815260206004820152601d60248201527f426f6e64696e67206375727665206e6f742077686974656c69737465640000006044820152606401610914565b6000610a0260408401602085016117f4565b6040516301ffc9a760e01b815263780e9d6360e01b60048201526001600160a01b0391909116906301ffc9a79060240160206040518083038186803b158015610a4a57600080fd5b505afa925050508015610a7a575060408051601f3d908101601f19168201909252610a7791810190611ada565b60015b610aa557507f0000000000000000000000000000000000000000000000000000000000000000610af6565b80610ad0577f0000000000000000000000000000000000000000000000000000000000000000610af2565b7f00000000000000000000000000000000000000000000000000000000000000005b9150505b610b5c30610b0a60608601604087016117f4565b610b1a60408701602088016117f4565b610b2a60a0880160808901611af7565b6002811115610b3b57610b3b611a91565b610b4860208901896117f4565b6001600160a01b03871694939291906112e4565b9150610bd982610b6f60208601866117f4565b610b7f60408701602088016117f4565b610b8f60808801606089016117f4565b610b9f60c0890160a08a01611b12565b610baf60e08a0160c08b01611b2d565b610bc06101008b0160e08c01611b12565b610bce6101008c018c611b48565b8c6101200135611367565b6040516001600160a01b03831681527ff5bdc103c3e68a20d5f97d2d46792d3fdddfa4efeb6761f8141e6a7b936ca66c9060200160405180910390a150919050565b610c2361128a565b8015610c86576001600160a01b03821660009081526004602052604090205460ff1615610c865760405162461bcd60e51b815260206004820152601160248201527021b0b713ba1031b0b636103937baba32b960791b6044820152606401610914565b604080518082018252821515808252600160208084019182526001600160a01b03871660008181526005835286902094518554935161ffff1990941690151561ff0019161761010093151593909302929092179093558351908152918201527f24e274cfd23919da24a57044266685f5474338837aecdcca3136b2102f78fee591016108c2565b610d1561128a565b610d1f600061149a565b565b610d2961128a565b67016345785d8a0000811115610d715760405162461bcd60e51b815260206004820152600d60248201526c46656520746f6f206c6172676560981b6044820152606401610914565b60028190556040518181527f7c5d30e0df5c540841a598b27bd89807223a2e6348125bb4aa74f1a8cb9ce76890602001610967565b610dae61128a565b600154610d1f906001600160a01b0316476114ea565b610dcc61128a565b600154610de6906001600160a01b0384811691168361153b565b5050565b6001600160a01b03881660009081526003602052604081205460ff16610e525760405162461bcd60e51b815260206004820152601d60248201527f426f6e64696e67206375727665206e6f742077686974656c69737465640000006044820152606401610914565b6040516301ffc9a760e01b815263780e9d6360e01b60048201526000906001600160a01b038c16906301ffc9a79060240160206040518083038186803b158015610e9b57600080fd5b505afa925050508015610ecb575060408051601f3d908101601f19168201909252610ec891810190611ada565b60015b610ef657507f0000000000000000000000000000000000000000000000000000000000000000610f47565b80610f21577f0000000000000000000000000000000000000000000000000000000000000000610f43565b7f00000000000000000000000000000000000000000000000000000000000000005b9150505b610f72308b8d8b6002811115610f5f57610f5f611a91565b6001600160a01b038616939291906115b9565b9150610f84828c8b8a8a8a8a8a611632565b6040516001600160a01b03831681527ff5bdc103c3e68a20d5f97d2d46792d3fdddfa4efeb6761f8141e6a7b936ca66c9060200160405180910390a1509998505050505050505050565b610fd661128a565b801561103e576001600160a01b038216600090815260056020526040902054610100900460ff161561103e5760405162461bcd60e51b815260206004820152601160248201527021b0b713ba1031b0b636103937baba32b960791b6044820152606401610914565b6001600160a01b038216600081815260046020908152604091829020805460ff19168515159081179091558251938452908301527fab2e2e8d21d5efbffb30945e9b6ee1fb43620ef65a228f871f5028bf8a6e004a91016108c2565b6110a261128a565b6001600160a01b0381166111075760405162461bcd60e51b815260206004820152602660248201527f4f776e61626c653a206e6577206f776e657220697320746865207a65726f206160448201526564647265737360d01b6064820152608401610914565b6111108161149a565b50565b6000604051733d3d3d3d363d3d37605160353639366051013d7360601b81528360601b60148201526c5af43d3d93803e603357fd5bf360981b60288201528460601b6035820152604981016049600082863c6029810151602983015114602082015160208401511416815183511416925050509392505050565b6000604051733d3d3d3d363d3d37603d6035363936603d013d7360601b81528360601b60148201526c5af43d3d93803e603357fd5bf360981b60288201528460601b6035820152604981016049600082863c6029810151602983015114602082015160208401511416815183511416925050509392505050565b60006040516323b872dd60e01b81528460048201528360248201528260448201526020600060648360008a5af13d15601f3d116001600051141617169150508061085b5760405162461bcd60e51b81526020600482015260146024820152731514905394d1915497d19493d357d1905253115160621b6044820152606401610914565b6000546001600160a01b03163314610d1f5760405162461bcd60e51b815260206004820181905260248201527f4f776e61626c653a2063616c6c6572206973206e6f7420746865206f776e65726044820152606401610914565b60006040517f60863d8160093d39f33d3d3d3d363d3d37605160353639366051013d7300000081528760601b601d8201526c5af43d3d93803e603357fd5bf360981b60318201528660601b603e8201528560601b60528201528460601b606682015283607a8201538260601b607b820152608f816000f098975050505050505050565b60405163fd17aef960e01b81526001600160a01b038b169063fd17aef99061139b9033908b908b908b908b90600401611b92565b600060405180830381600087803b1580156113b557600080fd5b505af11580156113c9573d6000803e3d6000fd5b506113e3925050506001600160a01b038a16338c84611207565b8160005b8181101561148c57896001600160a01b03166342842e0e338e88888681811061141257611412611ac4565b6040516001600160e01b031960e088901b1681526001600160a01b03958616600482015294909316602485015250602090910201356044820152606401600060405180830381600087803b15801561146957600080fd5b505af115801561147d573d6000803e3d6000fd5b505050508060010190506113e7565b505050505050505050505050565b600080546001600160a01b038381166001600160a01b0319831681178455604051919092169283917f8be0079c531659141344cd1fd0a4f28419497f9722a3daafe3b4186f6b6457e09190a35050565b600080600080600085875af190508061072c5760405162461bcd60e51b815260206004820152601360248201527211551217d514905394d1915497d19052531151606a1b6044820152606401610914565b600060405163a9059cbb60e01b8152836004820152826024820152602060006044836000895af13d15601f3d11600160005114161716915050806115b35760405162461bcd60e51b815260206004820152600f60248201526e1514905394d1915497d19052531151608a1b6044820152606401610914565b50505050565b60006040517f60723d8160093d39f33d3d3d3d363d3d37603d6035363936603d013d7300000081528660601b601d8201526c5af43d3d93803e603357fd5bf360981b60318201528560601b603e8201528460601b60528201528360601b606682015282607a820153607b816000f0979650505050505050565b60405163fd17aef960e01b81526001600160a01b0389169063fd17aef9906116669033908a908a908a908a90600401611b92565b600060405180830381600087803b15801561168057600080fd5b505af1158015611694573d6000803e3d6000fd5b506116ac925050506001600160a01b038916346114ea565b8060005b8181101561175557886001600160a01b03166342842e0e338c8787868181106116db576116db611ac4565b6040516001600160e01b031960e088901b1681526001600160a01b03958616600482015294909316602485015250602090910201356044820152606401600060405180830381600087803b15801561173257600080fd5b505af1158015611746573d6000803e3d6000fd5b505050508060010190506116b0565b50505050505050505050565b6001600160a01b038116811461111057600080fd5b6000806040838503121561178957600080fd5b823561179481611761565b91506020830135600481106117a857600080fd5b809150509250929050565b6000806000606084860312156117c857600080fd5b83356117d381611761565b925060208401356117e381611761565b929592945050506040919091013590565b60006020828403121561180657600080fd5b813561181181611761565b9392505050565b60008083601f84011261182a57600080fd5b50813567ffffffffffffffff81111561184257600080fd5b6020830191508360208260051b850101111561185d57600080fd5b9250929050565b6000806000806060858703121561187a57600080fd5b843561188581611761565b9350602085013567ffffffffffffffff8111156118a157600080fd5b6118ad87828801611818565b90945092505060408501356118c181611761565b939692955090935050565b801515811461111057600080fd5b600080604083850312156118ed57600080fd5b82356118f881611761565b915060208301356117a8816118cc565b60006020828403121561191a57600080fd5b813567ffffffffffffffff81111561193157600080fd5b8201610140818503121561181157600080fd5b60006020828403121561195657600080fd5b5035919050565b6000806040838503121561197057600080fd5b823561197b81611761565b946020939093013593505050565b80356003811061199857600080fd5b919050565b80356001600160801b038116811461199857600080fd5b80356bffffffffffffffffffffffff8116811461199857600080fd5b60008060008060008060008060006101008a8c0312156119ef57600080fd5b89356119fa81611761565b985060208a0135611a0a81611761565b975060408a0135611a1a81611761565b9650611a2860608b01611989565b9550611a3660808b0161199d565b9450611a4460a08b016119b4565b9350611a5260c08b0161199d565b925060e08a013567ffffffffffffffff811115611a6e57600080fd5b611a7a8c828d01611818565b915080935050809150509295985092959850929598565b634e487b7160e01b600052602160045260246000fd5b600060208284031215611ab957600080fd5b815161181181611761565b634e487b7160e01b600052603260045260246000fd5b600060208284031215611aec57600080fd5b8151611811816118cc565b600060208284031215611b0957600080fd5b61181182611989565b600060208284031215611b2457600080fd5b6118118261199d565b600060208284031215611b3f57600080fd5b611811826119b4565b6000808335601e19843603018112611b5f57600080fd5b83018035915067ffffffffffffffff821115611b7a57600080fd5b6020019150600581901b360382131561185d57600080fd5b6001600160a01b0395861681529390941660208401526001600160801b0391821660408401526bffffffffffffffffffffffff166060830152909116608082015260a0019056fea26469706673582212204448adc62d9e4fc2d65020a484610327dd55c927ec5e691d5d22401ceadb826e64736f6c63430008090033",
  "linkReferences": {},
  "deployedLinkReferences": {}
}